{
  "address": "0xe7845d23bEE42d4bC7eC8F1673174942045De41B",
  "abi": [
    {
      "inputs": [
        {
          "internalType": "address",
          "name": "_owner",
          "type": "address"
        }
      ],
      "stateMutability": "nonpayable",
      "type": "constructor"
    },
    {
      "anonymous": false,
      "inputs": [],
      "name": "CounterReset",
      "type": "event"
    },
    {
      "anonymous": false,
      "inputs": [
        {
          "indexed": true,
          "internalType": "address",
          "name": "greetingSetter",
          "type": "address"
        },
        {
          "indexed": false,
          "internalType": "string",
          "name": "newGreeting",
          "type": "string"
        },
        {
          "indexed": false,
          "internalType": "bool",
          "name": "premium",
          "type": "bool"
        },
        {
          "indexed": false,
          "internalType": "uint256",
          "name": "value",
          "type": "uint256"
        }
      ],
      "name": "GreetingChange",
      "type": "event"
    },
    {
      "anonymous": false,
      "inputs": [
        {
          "indexed": true,
          "internalType": "address",
          "name": "user",
          "type": "address"
        },
        {
          "indexed": false,
          "internalType": "uint256",
          "name": "number",
          "type": "uint256"
        }
      ],
      "name": "NumberUpdated",
      "type": "event"
    },
    {
      "inputs": [],
      "name": "greeting",
      "outputs": [
        {
          "internalType": "string",
          "name": "",
          "type": "string"
        }
      ],
      "stateMutability": "view",
      "type": "function"
    },
    {
      "inputs": [],
      "name": "owner",
      "outputs": [
        {
          "internalType": "address",
          "name": "",
          "type": "address"
        }
      ],
      "stateMutability": "view",
      "type": "function"
    },
    {
      "inputs": [],
      "name": "premium",
      "outputs": [
        {
          "internalType": "bool",
          "name": "",
          "type": "bool"
        }
      ],
      "stateMutability": "view",
      "type": "function"
    },
    {
      "inputs": [],
      "name": "resetCounter",
      "outputs": [],
      "stateMutability": "nonpayable",
      "type": "function"
    },
    {
      "inputs": [
        {
          "internalType": "string",
          "name": "_newGreeting",
          "type": "string"
        }
      ],
      "name": "setGreeting",
      "outputs": [],
      "stateMutability": "payable",
      "type": "function"
    },
    {
      "inputs": [
        {
          "internalType": "uint256",
          "name": "_number",
          "type": "uint256"
        }
      ],
      "name": "storeNumber",
      "outputs": [],
      "stateMutability": "nonpayable",
      "type": "function"
    },
    {
      "inputs": [],
      "name": "totalCounter",
      "outputs": [
        {
          "internalType": "uint256",
          "name": "",
          "type": "uint256"
        }
      ],
      "stateMutability": "view",
      "type": "function"
    },
    {
      "inputs": [
        {
          "internalType": "address",
          "name": "",
          "type": "address"
        }
      ],
      "name": "userGreetingCounter",
      "outputs": [
        {
          "internalType": "uint256",
          "name": "",
          "type": "uint256"
        }
      ],
      "stateMutability": "view",
      "type": "function"
    },
    {
      "inputs": [
        {
          "internalType": "address",
          "name": "",
          "type": "address"
        }
      ],
      "name": "userNumbers",
      "outputs": [
        {
          "internalType": "uint256",
          "name": "",
          "type": "uint256"
        }
      ],
      "stateMutability": "view",
      "type": "function"
    },
    {
      "inputs": [],
      "name": "withdraw",
      "outputs": [],
      "stateMutability": "nonpayable",
      "type": "function"
    },
    {
      "stateMutability": "payable",
      "type": "receive"
    }
  ],
  "transactionHash": "0x9d97371bb834a68bd89cb0d749365c207e988589decefe5eb7b2dee609bc7203",
  "args": [
    "0xF95B75242f8e9966175D66cAf9eb7340C1824c79"
  ],
  "numDeployments": 1,
  "solcInputHash": "0a691907637ff6bd9faad36cd8d687bc",
  "bytecode": "0x60e0604052601c60a09081527f4275696c64696e6720556e73746f707061626c6520417070732121210000000060c05260009061003c9082610127565b506001805460ff19169055600060025534801561005857600080fd5b50604051610b5a380380610b5a833981016040819052610077916101e6565b6001600160a01b0316608052610216565b634e487b7160e01b600052604160045260246000fd5b600181811c908216806100b257607f821691505b6020821081036100d257634e487b7160e01b600052602260045260246000fd5b50919050565b601f82111561012257600081815260208120601f850160051c810160208610156100ff5750805b601f850160051c820191505b8181101561011e5782815560010161010b565b5050505b505050565b81516001600160401b0381111561014057610140610088565b6101548161014e845461009e565b846100d8565b602080601f83116001811461018957600084156101715750858301515b600019600386901b1c1916600185901b17855561011e565b600085815260208120601f198616915b828110156101b857888601518255948401946001909101908401610199565b50858210156101d65787850151600019600388901b60f8161c191681555b5050505050600190811b01905550565b6000602082840312156101f857600080fd5b81516001600160a01b038116811461020f57600080fd5b9392505050565b60805161091b61023f6000396000818161010a01528181610226015261028c015261091b6000f3fe6080604052600436106100955760003560e01c8063b633941811610059578063b63394181461016d578063cea49c3c1461018d578063dbdf7fce146101ba578063e0a73a93146101cf578063ef690cc0146101f957600080fd5b80633ccfd60b146100a157806377df7725146100b85780638da5cb5b146100f857806397feba9d14610144578063a41368621461015a57600080fd5b3661009c57005b600080fd5b3480156100ad57600080fd5b506100b661021b565b005b3480156100c457600080fd5b506100e56100d3366004610589565b60046020526000908152604090205481565b6040519081526020015b60405180910390f35b34801561010457600080fd5b5061012c7f000000000000000000000000000000000000000000000000000000000000000081565b6040516001600160a01b0390911681526020016100ef565b34801561015057600080fd5b506100e560025481565b6100b66101683660046105cf565b610345565b34801561017957600080fd5b506100b6610188366004610680565b610416565b34801561019957600080fd5b506100e56101a8366004610589565b60036020526000908152604090205481565b3480156101c657600080fd5b506100b661045a565b3480156101db57600080fd5b506001546101e99060ff1681565b60405190151581526020016100ef565b34801561020557600080fd5b5061020e61048a565b6040516100ef91906106df565b336001600160a01b037f000000000000000000000000000000000000000000000000000000000000000016146102885760405162461bcd60e51b815260206004820152600d60248201526c2737ba103a34329027bbb732b960991b60448201526064015b60405180910390fd5b60007f00000000000000000000000000000000000000000000000000000000000000006001600160a01b03164760405160006040518083038185875af1925050503d80600081146102f5576040519150601f19603f3d011682016040523d82523d6000602084013e6102fa565b606091505b50509050806103425760405162461bcd60e51b81526020600482015260146024820152732330b4b632b2103a379039b2b7321022ba3432b960611b604482015260640161027f565b50565b6103686040518060600160405280602181526020016108c5602191398233610518565b6000610374828261077a565b50600160026000828254610388919061083a565b90915550503360009081526003602052604081208054600192906103ad90849061083a565b909155505034156103c9576001805460ff1916811790556103d4565b6001805460ff191690555b60405133907f94cbd7e04dca26a7667654f6448b2ca0a40fec602118dc5fd8c82b9cf3c645ad9061040b9084903480151591610861565b60405180910390a250565b3360008181526004602052604090819020839055517f34fc9a8d030d354e59e2bf2e5d0f37f63355b58fdbef38546a8af45588c1c0c19061040b9084815260200190565b600060028190556040517f79e13020b0c9b840ddf270793ab373525f9456e10bbba08dbe94217994736ec89190a1565b60008054610497906106f2565b80601f01602080910402602001604051908101604052809291908181526020018280546104c3906106f2565b80156105105780601f106104e557610100808354040283529160200191610510565b820191906000526020600020905b8154815290600101906020018083116104f357829003601f168201915b505050505081565b61055f83838360405160240161053093929190610886565b60408051601f198184030181529190526020810180516001600160e01b03166395ed019560e01b179052610564565b505050565b6103428160006a636f6e736f6c652e6c6f679050600080835160208501845afa505050565b60006020828403121561059b57600080fd5b81356001600160a01b03811681146105b257600080fd5b9392505050565b634e487b7160e01b600052604160045260246000fd5b6000602082840312156105e157600080fd5b813567ffffffffffffffff808211156105f957600080fd5b818401915084601f83011261060d57600080fd5b81358181111561061f5761061f6105b9565b604051601f8201601f19908116603f01168101908382118183101715610647576106476105b9565b8160405282815287602084870101111561066057600080fd5b826020860160208301376000928101602001929092525095945050505050565b60006020828403121561069257600080fd5b5035919050565b6000815180845260005b818110156106bf576020818501810151868301820152016106a3565b506000602082860101526020601f19601f83011685010191505092915050565b6020815260006105b26020830184610699565b600181811c9082168061070657607f821691505b60208210810361072657634e487b7160e01b600052602260045260246000fd5b50919050565b601f82111561055f57600081815260208120601f850160051c810160208610156107535750805b601f850160051c820191505b818110156107725782815560010161075f565b505050505050565b815167ffffffffffffffff811115610794576107946105b9565b6107a8816107a284546106f2565b8461072c565b602080601f8311600181146107dd57600084156107c55750858301515b600019600386901b1c1916600185901b178555610772565b600085815260208120601f198616915b8281101561080c578886015182559484019460019091019084016107ed565b508582101561082a5787850151600019600388901b60f8161c191681555b5050505050600190811b01905550565b8082018082111561085b57634e487b7160e01b600052601160045260246000fd5b92915050565b6060815260006108746060830186610699565b93151560208301525060400152919050565b6060815260006108996060830186610699565b82810360208401526108ab8186610699565b91505060018060a01b038316604083015294935050505056fe53657474696e67206e6577206772656574696e6720272573272066726f6d202573a26469706673582212208801bd8e41a0404e4676c8b2b7d4030aa74e0feafecc0d99eadf606ff93588ef64736f6c63430008110033",
  "devdoc": {
    "author": "BuidlGuidl",
    "kind": "dev",
    "methods": {
      "setGreeting(string)": {
        "params": {
          "_newGreeting": "(string memory) - new greeting to save on the contract"
        }
      }
    },
    "version": 1
  },
  "userdoc": {
    "kind": "user",
    "methods": {
      "setGreeting(string)": {
        "notice": "Function that allows anyone to change the state variable \"greeting\" of the contract and increase the counters"
      },
      "userNumbers(address)": {
        "notice": "mapping(address => uint) public lastActive; function updateActivity() public { lastActive[msg.sender] = block.timestamp; } function getLastActive(address user) public view returns (uint) { return lastActive[user]; }"
      },
      "withdraw()": {
        "notice": "Function that allows the owner to withdraw all the Ether in the contract The function can only be called by the owner of the contract as defined by the isOwner modifier"
      }
    },
    "notice": "A smart contract that allows changing a state variable of the contract and tracking the changes It also allows the owner to withdraw the Ether in the contract",
    "version": 1
  },
  "storageLayout": {
    "storage": [
      {
        "astId": 8,
        "contract": "contracts/YourContract.sol:YourContract",
        "label": "greeting",
        "offset": 0,
        "slot": "0",
        "type": "t_string_storage"
      },
      {
        "astId": 11,
        "contract": "contracts/YourContract.sol:YourContract",
        "label": "premium",
        "offset": 0,
        "slot": "1",
        "type": "t_bool"
      },
      {
        "astId": 14,
        "contract": "contracts/YourContract.sol:YourContract",
        "label": "totalCounter",
        "offset": 0,
        "slot": "2",
        "type": "t_uint256"
      },
      {
        "astId": 18,
        "contract": "contracts/YourContract.sol:YourContract",
        "label": "userGreetingCounter",
        "offset": 0,
        "slot": "3",
        "type": "t_mapping(t_address,t_uint256)"
      },
      {
        "astId": 156,
        "contract": "contracts/YourContract.sol:YourContract",
        "label": "userNumbers",
        "offset": 0,
        "slot": "4",
        "type": "t_mapping(t_address,t_uint256)"
      }
    ],
    "types": {
      "t_address": {
        "encoding": "inplace",
        "label": "address",
        "numberOfBytes": "20"
      },
      "t_bool": {
        "encoding": "inplace",
        "label": "bool",
        "numberOfBytes": "1"
      },
      "t_mapping(t_address,t_uint256)": {
        "encoding": "mapping",
        "key": "t_address",
        "label": "mapping(address => uint256)",
        "numberOfBytes": "32",
        "value": "t_uint256"
      },
      "t_string_storage": {
        "encoding": "bytes",
        "label": "string",
        "numberOfBytes": "32"
      },
      "t_uint256": {
        "encoding": "inplace",
        "label": "uint256",
        "numberOfBytes": "32"
      }
    }
  }
}